:100000000C942A000C9447000C9447000C94470071
:100010000C9418170C9457170C94CE150C940D16BD
:100020000C944C160C948B160C94B6140C94F5147A
:100030000C9447000C9447000C9447000C94470024
:100040000C9447000C9447000C9447000C94470014
:100050000C94470011241FBECFE5D8E0DEBFCDBF12
:1000600013E0A0E6B0E0EEEFF7E302C005900D92DA
:10007000A638B107D9F713E0A6E8B3E001C01D9296
:10008000A63AB107E1F70E9484170C94FD1B0C946B
:100090000000EF92FF920F931F937B018C0120E0F1
:1000A00030E040E05FE40E94250488238CF0C80122
:1000B000B70120E030E040E05FE40E94C1010E940F
:1000C000E3049B01AC01205030404040504806C042
:1000D000C801B7010E94E3049B01AC01B901CA0148
:1000E0001F910F91FF90EF900895A0E0B0E0EBE733
:1000F000F0E00C94541BDC012B01FA019C9192302E
:1001000008F439C1EB018881823008F433C194309E
:1001100069F4843009F02FC111969C91119789815F
:10012000981709F428C1AEE9B0E025C1843009F47C
:1001300021C18230A9F4923009F01DC19A01AD01AC
:1001400088E0EA010990AE01E90109929E0181501F
:10015000C1F7E201898111969C918923818308C1AD
:10016000923009F407C112962D903C901397EB0141
:100170008A819B811496AD90BD90CD90DC901797AD
:10018000EC80FD800E811F819101281B390BB90184
:1001900037FF04C066277727621B730B6032710537
:1001A0000CF061C0121613066CF537014801062EDB
:1001B00004C096948794779467940A94D2F721E0C8
:1001C00030E040E050E004C0220F331F441F551FB1
:1001D0006A95D2F721503040404050402E213F21B7
:1001E00040235123211531054105510521F021E01E
:1001F00030E040E050E079018A01E628F72808293C
:1002000019293CC0232BD1F1260E371E350146019A
:10021000062E04C096948794779467940A94D2F734
:1002200021E030E040E050E004C0220F331F441FC3
:10023000551F6A95D2F721503040404050402A2146
:100240003B214C215D21211531054105510521F04E
:1002500021E030E040E050E059016A01A628B728CB
:10026000C828D9280BC0821593052CF01C01AA249C
:10027000BB24650103C0EE24FF24870111969C91E5
:10028000D20111968C91981709F445C0992339F041
:10029000A80197012A193B094C095D0906C0A6016E
:1002A00095012E193F09400B510B57FD08C01182D3
:1002B0003382228224833583468357831DC081E0A5
:1002C00081833382228288279927DC01821B930B4A
:1002D000A40BB50B84839583A683B7830DC0220F2F
:1002E000331F441F551F24833583468357838281E0
:1002F000938101979383828324813581468157813D
:10030000DA01C9010197A109B1098F5F9F4FAF4F72
:10031000BF4328F30BC0918333822282EA0CFB1C7B
:100320000C1D1D1DE482F5820683178383E0808304
:10033000248135814681578157FF1AC0C901AA27F8
:1003400097FDA095BA2F81709070A070B0705695EF
:10035000479537952795822B932BA42BB52B848318
:100360009583A683B7838281938101969383828349
:10037000DF0101C0D201CD01CDB7DEB7E2E10C94BF
:10038000701BA0E2B0E0E7ECF1E00C94601B698325
:100390007A838B839C832D833E834F835887E9E048
:1003A000EE2EF12CEC0EFD1ECE010196B7010E943F
:1003B000D4068E010F5E1F4FCE010596B8010E9434
:1003C000D4068A8991E089278A8BC701B801AE01DA
:1003D000475E5F4F0E9475000E94FF05A096E6E011
:1003E0000C947C1BA0E2B0E0E8EFF1E00C94601B01
:1003F00069837A838B839C832D833E834F835887C5
:10040000F9E0EF2EF12CEC0EFD1ECE010196B701A6
:100410000E94D4068E010F5E1F4FCE010596B801D3
:100420000E94D406C701B801AE01475E5F4F0E942B
:1004300075000E94FF05A096E6E00C947C1BA0E2EC
:10044000B0E0E5E2F2E00C94541B69837A838B837D
:100450009C832D833E834F835887CE010196BE0136
:10046000675F7F4F0E94D406CE010596BE016F5E86
:100470007F4F0E94D4069985923088F08989823016
:10048000C8F0943019F4823051F404C0843029F457
:10049000923081F48EE990E0C6C0923049F420E0B9
:1004A0009A858A89981321E02A87CE010996BBC0D4
:1004B000823049F420E09A858A89981321E02A8BBA
:1004C000CE014196B0C02D843E844F8458886D88FB
:1004D0007E888F88988CEE24FF248701AA24BB2471
:1004E000650140E050E060E070E0E0E0F0E0C10174
:1004F00081709070892BE9F0E60CF71C081D191D1E
:100500009A01AB012A0D3B1D4C1D5D1D80E090E062
:10051000A0E0B0E0E614F7040805190520F481E036
:1005200090E0A0E0B0E0BA01A901480F591F6A1F8E
:100530007B1FAA0CBB1CCC1CDD1C97FE08C081E0F5
:1005400090E0A0E0B0E0A82AB92ACA2ADB2A3196B6
:10055000E032F10549F0660C771C881C991C569412
:10056000479437942794C3CFFA85EA892B893C892D
:100570008B859C85280F391F2E5F3F4F17C0CA01FE
:1005800081709070892B61F016950795F794E79428
:1005900080E090E0A0E0B0E8E82AF92A0A2B1B2BC3
:1005A00076956795579547952F5F3F4F77FDE7CF36
:1005B0000CC0440F551F661F771F17FD4160EE0CDE
:1005C000FF1C001F111F21503040403090E05907A0
:1005D00090E0690790E4790760F32B8F3C8FDB0193
:1005E000CA018F779070A070B07080349105A1051A
:1005F000B10561F447FD0AC0E114F10401051105DC
:1006000029F0405C5F4F6F4F7F4F40781A8EFE1786
:1006100011F081E08A8F4D8F5E8F6F8F78A383E01A
:10062000898FCE0149960E94FF05A096E2E10C94C5
:10063000701BA8E1B0E0EFE1F3E00C945C1B698370
:100640007A838B839C832D833E834F835887B9E0C5
:10065000EB2EF12CEC0EFD1ECE010196B7010E948F
:10066000D4068E010F5E1F4FCE010596B8010E9481
:10067000D4062985223008F47EC03989323010F43E
:10068000B8017CC08A859A8989278A87243011F02D
:10069000223031F4231709F06EC06EE970E06EC0AD
:1006A000343039F41D861E861F86188A1C861B86E8
:1006B00004C0323021F484E08987B7015FC02B8504
:1006C0003C858B899C89281B390B3C872B87ED84C3
:1006D000FE840F851889AD88BE88CF88D88CEA142F
:1006E000FB040C051D0540F4EE0CFF1C001F111F40
:1006F000215030403C872B8720E030E040E050E044
:1007000080E090E0A0E0B0E460E070E0EA14FB0478
:100710000C051D0540F0282B392B4A2B5B2BEA18C2
:10072000FB080C091D09B695A79597958795EE0CC2
:10073000FF1C001F111F6F5F7F4F6F31710531F775
:10074000DA01C9018F779070A070B0708034910584
:10075000A105B10561F427FD0AC0E114F10401050A
:10076000110529F0205C3F4F4F4F5F4F20782D87B8
:100770003E874F87588BBE01675F7F4FCB010E943A
:10078000FF056896EAE00C94781BA8E1B0E0EBEC7A
:10079000F3E00C94601B69837A838B839C832D83A5
:1007A0003E834F83588789E0E82EF12CEC0EFD1E26
:1007B000CE010196B7010E94D4068E010F5E1F4F35
:1007C000CE010596B8010E94D4068985823040F09A
:1007D0008989823028F0C701B8010E944C0701C006
:1007E00081E06896E6E00C947C1BA8E1B0E0EBEFBA
:1007F000F3E00C94601B69837A838B839C832D8345
:100800003E834F83588789E0E82EF12CEC0EFD1EC5
:10081000CE010196B7010E94D4068E010F5E1F4FD4
:10082000CE010596B8010E94D4068985823040F039
:100830008989823028F0C701B8010E944C0701C0A5
:100840008FEF6896E6E00C947C1BA8E1B0E0EBE249
:10085000F4E00C94601B69837A838B839C832D83E3
:100860003E834F83588789E0E82EF12CEC0EFD1E65
:10087000CE010196B7010E94D4068E010F5E1F4F74
:10088000CE010596B8010E94D4068985823040F0D9
:100890008989823028F0C701B8010E944C0701C045
:1008A0008FEF6896E6E00C947C1BA8E1B0E0EBE5E6
:1008B000F4E00C94601B69837A838B839C832D8383
:1008C0003E834F83588789E0E82EF12CEC0EFD1E05
:1008D000CE010196B7010E94D4068E010F5E1F4F14
:1008E000CE010596B8010E94D4068985823040F079
:1008F0008989823028F0C701B8010E944C0701C0E5
:1009000081E06896E6E00C947C1BA8E0B0E0EBE8A0
:10091000F4E00C945D1B9B01AC0183E08983DA0158
:10092000C9018827B7FD83959927AA27BB27B82E29
:10093000211531054105510519F482E089833AC03A
:100940008823A9F0203080E0380780E0480780E85D
:10095000580729F460E070E080E09FEC30C0EE249E
:10096000FF248701E21AF30A040B150B02C0790178
:100970008A018EE1C82ED12CDC82CB82ED82FE82F0
:100980000F831887C801B7010E94B0050197181698
:10099000190684F4082E04C0EE0CFF1C001F111F62
:1009A0000A94D2F7ED82FE820F831887C81AD90AFB
:1009B000DC82CB82BA82CE0101960E94FF05289686
:1009C000E9E00C94791BACE0B0E0E9EEF4E00C94C3
:1009D000641B69837A838B839C83CE010196BE015D
:1009E0006B5F7F4F0E94D4068D81823061F182302F
:1009F00050F1843021F48E81882351F12EC02F8153
:100A0000388537FD20C06E812F3131051CF06623FB
:100A1000F9F023C08EE190E0821B930B29853A8583
:100A20004B855C8504C056954795379527958A95E3
:100A3000D2F76623B1F050954095309521953F4F00
:100A40004F4F5F4F0EC020E030E040E050E009C063
:100A50002FEF3FEF4FEF5FE704C020E030E040E0D2
:100A600050E8B901CA012C96E2E00C94801BA8E082
:100A7000B0E0EDE3F5E00C945C1B7B018C016115AB
:100A800071058105910519F482E0898360C083E0D6
:100A900089838EE1C82ED12CDC82CB82ED82FE824E
:100AA0000F831887C801B7010E94B005FC01319778
:100AB000F7FF3BC0222733272E1B3F0B570168014E
:100AC000022E04C0D694C794B794A7940A94D2F780
:100AD00040E050E060E070E081E090E0A0E0B0E055
:100AE00004C0880F991FAA1FBB1F2A95D2F7019730
:100AF000A109B1098E219F21A023B1230097A1054F
:100B0000B10521F041E050E060E070E04A295B2946
:100B10006C297D294D835E836F8378878EE190E019
:100B20008E1B9F0B9C838B8312C0309781F00E2EFF
:100B300004C0EE0CFF1C001F111F0A94D2F7ED82B7
:100B4000FE820F831887CE1ADF0ADC82CB821A82DC
:100B5000CE0101960E94FF052896EAE00C94781BCE
:100B6000EF92FF920F931F937B018C0180E0E816B8
:100B700080E0F80681E0080780E0180788F48FEF2E
:100B8000E816F1040105110531F028F088E090E045
:100B9000A0E0B0E017C080E090E0A0E0B0E012C0BC
:100BA00080E0E81680E0F80680E0080781E018079A
:100BB00028F088E190E0A0E0B0E004C080E190E09F
:100BC000A0E0B0E020E230E040E050E0281B390B2C
:100BD0004A0B5B0B04C016950795F794E7948A952A
:100BE000D2F7F701EA55FF4F8081281B31094109EF
:100BF0005109C9011F910F91FF90EF900895DF9265
:100C0000EF92FF920F931F93FC01E480F580068121
:100C10001781D1808081823048F480E090E0A0E1AB
:100C2000B0E0E82AF92A0A2B1B2BA5C0843009F46E
:100C30009FC0823021F4EE24FF24870105C0E11417
:100C4000F1040105110519F4E0E0F0E096C06281BD
:100C500073819FEF623879070CF05BC022E83FEFA9
:100C6000261B370B2A3131052CF020E030E040E024
:100C700050E02AC0B801A701022E04C076956795FE
:100C8000579547950A94D2F781E090E0A0E0B0E054
:100C900004C0880F991FAA1FBB1F2A95D2F701977E
:100CA000A109B1098E219F21A023B1230097A1059D
:100CB000B10521F081E090E0A0E0B0E09A01AB0145
:100CC000282B392B4A2B5B2BDA01C9018F779070C7
:100CD000A070B07080349105A105B10539F427FFEB
:100CE00009C0205C3F4F4F4F5F4F04C0215C3F4F16
:100CF0004F4F5F4FE0E0F0E02030A0E03A07A0E087
:100D00004A07A0E45A0710F0E1E0F0E079018A0117
:100D100027C06038710564F5FB01E158FF4FD80129
:100D2000C7018F779070A070B07080349105A105D5
:100D3000B10539F4E7FE0DC080E490E0A0E0B0E03A
:100D400004C08FE390E0A0E0B0E0E80EF91E0A1FB7
:100D50001B1F17FF05C016950795F794E79431966A
:100D600087E016950795F794E7948A95D1F705C023
:100D7000EE24FF248701EFEFF0E06E2F67956627E2
:100D80006795902F9F77D794DD24D7948E2F8695E3
:100D9000492F462B582F5D29B701CA011F910F918A
:100DA000FF90EF90DF900895FC01DB0140815181BD
:100DB0002281622F6F7770E0221F2227221F9381EA
:100DC000892F880F822B282F30E0991F9927991F90
:100DD00011969C93119721153105A9F541155105DF
:100DE0006105710511F482E037C082E89FEF139628
:100DF0009C938E9312979A01AB0167E0220F331FE9
:100E0000441F551F6A95D1F783E08C930DC0220FC4
:100E1000331F441F551F12968D919C911397019774
:100E200013969C938E931297203080E0380780E0D1
:100E3000480780E4580758F314962D933D934D933B
:100E40005C93179708952F3F310579F441155105AB
:100E50006105710519F484E08C93089564FF03C063
:100E600081E08C9312C01C9210C02F573040139613
:100E70003C932E93129783E08C9387E0440F551F89
:100E8000661F771F8A95D1F7706414964D935D9312
:100E90006D937C93179708951F93DC01FB019C9140
:100EA000923008F447C08081823008F443C0943007
:100EB00051F411961C91843099F58181682F70E06E
:100EC000611B71093FC0843021F0923031F48230CF
:100ED000B9F18181882389F12DC011961C91119758
:100EE0008230F1F081811817D9F412962D913C913E
:100EF0001397828193818217930794F028173907FB
:100F0000BCF014968D919D910D90BC91A02D2481E3
:100F1000358146815781281739074A075B0718F43E
:100F2000112341F00AC082179307A407B50740F4C4
:100F3000112319F061E070E005C06FEF7FEF02C090
:100F400060E070E0CB011F910895DF93CF9300D054
:100F500000D00F92CDB7DEB789836A834B83898136
:100F6000282F30E03D832C838C819D818130910539
:100F700009F447C02C813D81223031052CF48C814D
:100F80009D81009771F0CBC02C813D8122303105CD
:100F900009F467C08C819D818330910509F491C06B
:100FA000BEC08B818130A1F4AAE3B0E0EAE3F0E0B7
:100FB0008081482F8A81282F30E081E090E0022E46
:100FC00002C0880F991F0A94E2F7842B8C93A7C064
:100FD0008B81882309F0A3C0AAE3B0E0EAE3F0E044
:100FE0008081482F8A81282F30E081E090E0022E16
:100FF00002C0880F991F0A94E2F7809584238C938E
:101000008EC08B818130A1F4A7E3B0E0E7E3F0E08C
:101010008081482F8A81282F30E081E090E0022EE5
:1010200002C0880F991F0A94E2F7842B8C9377C033
:101030008B81882309F073C0A7E3B0E0E7E3F0E019
:101040008081482F8A81282F30E081E090E0022EB5
:1010500002C0880F991F0A94E2F7809584238C932D
:101060005EC08B818130A1F4A4E3B0E0E4E3F0E062
:101070008081482F8A81282F30E081E090E0022E85
:1010800002C0880F991F0A94E2F7842B8C9347C003
:101090008B81882309F043C0A4E3B0E0E4E3F0E0EF
:1010A0008081482F8A81282F30E081E090E0022E55
:1010B00002C0880F991F0A94E2F7809584238C93CD
:1010C0002EC08B818130A1F4A1E3B0E0E1E3F0E038
:1010D0008081482F8A81282F30E081E090E0022E25
:1010E00002C0880F991F0A94E2F7842B8C9317C0D3
:1010F0008B818823A1F4A1E3B0E0E1E3F0E08081FB
:10110000482F8A81282F30E081E090E0022E02C033
:10111000880F991F0A94E2F7809584238C930F908F
:101120000F900F900F900F90CF91DF910895DF9364
:10113000CF9300D000D00F92CDB7DEB789836A83FA
:101140004B838981282F30E03D832C838C819D81C6
:101150008130910509F447C02C813D812230310551
:101160002CF48C819D81009771F0CBC02C813D8146
:101170002230310509F467C08C819D81833091054F
:1011800009F491C0BEC08B818130A1F4ABE3B0E023
:10119000EBE3F0E08081482F8A81282F30E081E066
:1011A00090E0022E02C0880F991F0A94E2F7842B68
:1011B0008C93A7C08B81882309F0A3C0ABE3B0E078
:1011C000EBE3F0E08081482F8A81282F30E081E036
:1011D00090E0022E02C0880F991F0A94E2F78095D2
:1011E00084238C938EC08B818130A1F4A8E3B0E07E
:1011F000E8E3F0E08081482F8A81282F30E081E009
:1012000090E0022E02C0880F991F0A94E2F7842B07
:101210008C9377C08B81882309F073C0A8E3B0E07A
:10122000E8E3F0E08081482F8A81282F30E081E0D8
:1012300090E0022E02C0880F991F0A94E2F7809571
:1012400084238C935EC08B818130A1F4A5E3B0E050
:10125000E5E3F0E08081482F8A81282F30E081E0AB
:1012600090E0022E02C0880F991F0A94E2F7842BA7
:101270008C9347C08B81882309F043C0A5E3B0E07D
:10128000E5E3F0E08081482F8A81282F30E081E07B
:1012900090E0022E02C0880F991F0A94E2F7809511
:1012A00084238C932EC08B818130A1F4A2E3B0E023
:1012B000E2E3F0E08081482F8A81282F30E081E04E
:1012C00090E0022E02C0880F991F0A94E2F7842B47
:1012D0008C9317C08B818823A1F4A2E3B0E0E2E3F2
:1012E000F0E08081482F8A81282F30E081E090E073
:1012F000022E02C0880F991F0A94E2F7809584237A
:101300008C930F900F900F900F900F90CF91DF91D3
:101310000895DF93CF9300D000D00F92CDB7DEB702
:101320008A836B8319828A81282F30E03D832C8346
:101330004C815D814130510541F18C819D8182302C
:10134000910534F42C813D812115310561F052C0A5
:101350004C815D814230510551F18C819D818330FA
:101360009105B9F147C0E9E3F0E08081282F30E032
:101370008B81882F90E0A90102C0559547958A95E9
:10138000E2F7CA018170898335C0E6E3F0E080812D
:10139000282F30E08B81882F90E0A90102C055955D
:1013A00047958A95E2F7CA018170898323C0E3E3F8
:1013B000F0E08081282F30E08B81882F90E0A90118
:1013C00002C0559547958A95E2F7CA0181708983D5
:1013D00011C0E0E3F0E08081282F30E08B81882F7E
:1013E00090E0A90102C0559547958A95E2F7CA0198
:1013F0008170898389810F900F900F900F900F90CB
:10140000CF91DF910895DF93CF9300D000D0CDB777
:10141000DEB789836A838981282F30E03C832B8360
:101420008B819C8181309105D1F02B813C812230D0
:1014300031052CF48B819C81009761F01EC02B81BB
:101440003C812230310581F08B819C818330910574
:1014500081F013C0EAE3F0E08A8180830EC0E7E305
:10146000F0E08A81808309C0E4E3F0E08A81808330
:1014700004C0E1E3F0E08A8180830F900F900F9029
:101480000F90CF91DF910895DF93CF9300D000D0DC
:10149000CDB7DEB789836A838981282F30E03C830A
:1014A0002B838B819C8181309105D1F02B813C81F4
:1014B000223031052CF48B819C81009761F01EC095
:1014C0002B813C812230310581F08B819C818330DE
:1014D000910581F013C0EBE3F0E08A8180830EC0B8
:1014E000E8E3F0E08A81808309C0E5E3F0E08A81E7
:1014F000808304C0E2E3F0E08A8180830F900F9044
:101500000F900F90CF91DF910895DF93CF9300D08C
:1015100000D0CDB7DEB789836A838981282F30E078
:101520003C832B838B819C818130910579F12B81C8
:101530003C81223031052CF48B819C81009769F02D
:101540006FC02B813C8122303105C9F18B819C8198
:101550008330910509F44CC063C0AAE3B0E0EAE32C
:10156000F0E080818F708C93AAE3B0E0EAE3F0E0D2
:101570008081282F8A81882F90E082959295907F94
:101580009827807F9827822B8C934AC0A7E3B0E0EE
:10159000E7E3F0E080818F708C93A7E3B0E0E7E3AE
:1015A000F0E08081282F8A81882F90E082959295A3
:1015B000907F9827807F9827822B8C9331C0A4E35B
:1015C000B0E0E4E3F0E080818F708C93A4E3B0E0BE
:1015D000E4E3F0E08081282F8A81882F90E08295D3
:1015E0009295907F9827807F9827822B8C9318C0A4
:1015F000A1E3B0E0E1E3F0E080818F708C93A1E3A0
:10160000B0E0E1E3F0E08081282F8A81882F90E02C
:1016100082959295907F9827807F9827822B8C9334
:101620000F900F900F900F90CF91DF910895DF935F
:10163000CF9300D000D0CDB7DEB789836A8389818C
:10164000282F30E03C832B838B819C818130910556
:1016500029F12B813C81223031052CF48B819C8136
:10166000009761F04AC02B813C812230310531F175
:101670008B819C818330910589F13FC0AAE3B0E062
:10168000EAE3F0E08081807F8C93AAE3B0E0EAE3B4
:10169000F0E090818A81892B8C932FC0A7E3B0E082
:1016A000E7E3F0E08081807F8C93A7E3B0E0E7E39D
:1016B000F0E090818A81892B8C931FC0A4E3B0E075
:1016C000E4E3F0E08081807F8C93A4E3B0E0E4E386
:1016D000F0E090818A81892B8C930FC0A1E3B0E068
:1016E000E1E3F0E08081807F8C93A1E3B0E0E1E36F
:1016F000F0E090818A81892B8C930F900F900F904E
:101700000F90CF91DF910895DF93CF9300D000D059
:10171000CDB7DEB789836A838981282F30E03C8387
:101720002B838B819C818130910579F12B813C81C8
:10173000223031052CF48B819C81009769F06FC0B9
:101740002B813C8122303105C9F18B819C81833012
:10175000910509F44CC063C0ABE3B0E0EBE3F0E00B
:1017600080818F708C93ABE3B0E0EBE3F0E080819D
:10177000282F8A81882F90E082959295907F9827D4
:10178000807F9827822B8C934AC0A8E3B0E0E8E3DF
:10179000F0E080818F708C93A8E3B0E0E8E3F0E0A4
:1017A0008081282F8A81882F90E082959295907F62
:1017B0009827807F9827822B8C9331C0A5E3B0E0D7
:1017C000E5E3F0E080818F708C93A5E3B0E0E5E382
:1017D000F0E08081282F8A81882F90E08295929571
:1017E000907F9827807F9827822B8C9318C0A2E344
:1017F000B0E0E2E3F0E080818F708C93A2E3B0E090
:10180000E2E3F0E08081282F8A81882F90E08295A2
:101810009295907F9827807F9827822B8C930F90AA
:101820000F900F900F90CF91DF910895DF93CF939A
:1018300000D000D0CDB7DEB789836A838981282F95
:1018400030E03C832B838B819C818130910529F191
:101850002B813C81223031052CF48B819C810097B7
:1018600061F04AC02B813C812230310531F18B81FE
:101870009C818330910589F13FC0ABE3B0E0EBE39D
:10188000F0E08081807F8C93ABE3B0E0EBE3F0E0AD
:1018900090818A81892B8C932FC0A8E3B0E0E8E384
:1018A000F0E08081807F8C93A8E3B0E0E8E3F0E093
:1018B00090818A81892B8C931FC0A5E3B0E0E5E37A
:1018C000F0E08081807F8C93A5E3B0E0E5E3F0E079
:1018D00090818A81892B8C930FC0A2E3B0E0E2E370
:1018E000F0E08081807F8C93A2E3B0E0E2E3F0E05F
:1018F00090818A81892B8C930F900F900F900F907D
:10190000CF91DF910895DF93CF93CDB7DEB7AFE5E9
:10191000B0E0EFE5F0E0808180688C93CF91DF91BB
:101920000895DF93CF93CDB7DEB7AFE5B0E0EFE535
:10193000F0E080818F778C93CF91DF910895DF93D2
:10194000CF93CDB7DEB769970FB6F894DEBF0FBE61
:10195000CDBF898F82E061E040E00E94970882E07D
:1019600060E040E00E94970881E0698D0E94440A8F
:1019700082E062E041E00E94970880E090E0A0EA07
:10198000B0E48D8B9E8BAF8BB88F6D897E898F89EC
:10199000988D2BEA3AEA4AEA50E40E941F02DC01E1
:1019A000CB01898B9A8BAB8BBC8B69897A898B89AC
:1019B0009C8920E030E040E85FE30E9455048823E2
:1019C0001CF481E0888B91C069897A898B899C8914
:1019D00020E030E04FE753E40E94F50318160CF0C6
:1019E0007BC06D897E898F89988D20E030E04AE741
:1019F00054E40E941903DC01CB018C879D87AE87DC
:101A0000BF876C857D858E859F8520E030E04AE725
:101A100055E40E941F02DC01CB0188879987AA87C1
:101A2000BB87688579858A859B8520E030E040E822
:101A30005FE30E94550488232CF481E090E09F83AB
:101A40008E833FC0688579858A859B8520E03FEF3E
:101A50004FE757E40E94F50318164CF56C857D8519
:101A60008E859F8520E030E040E251E40E941F0215
:101A7000DC01CB01BC01CD010E944900DC01CB019E
:101A80009F838E830FC080E991E09D838C838C813E
:101A90009D810197F1F79D838C838E819F810197B2
:101AA0009F838E838E819F81009769F724C068850C
:101AB00079858A859B850E944900DC01CB019F8343
:101AC0008E838E819F819B838A838A819B810197EC
:101AD000F1F79B838A830FC069897A898B899C89F6
:101AE0000E944900DC01CB01888B88898983898128
:101AF0008A95F1F7898382E062E040E00E949708CE
:101B000069960FB6F894DEBF0FBECDBFCF91DF91BF
:101B10000895DF93CF93CDB7DEB72E970FB6F89425
:101B2000DEBF0FBECDBF82E063E041E00E949708B8
:101B300082E064E041E00E94970882E065E041E0D5
:101B40000E94970880E090E0A0EAB1E48B879C8730
:101B5000AD87BE876B857C858D859E8520E030E0D6
:101B60004AE755E40E941F02DC01CB018F8398876E
:101B7000A987BA876F81788589859A8520E030E0CA
:101B800040E85FE30E94550488232CF481E090E054
:101B90009E838D833FC06F81788589859A8520E0FB
:101BA0003FEF4FE757E40E94F50318164CF56B859D
:101BB0007C858D859E8520E030E040E251E40E94E6
:101BC0001F02DC01CB01BC01CD010E944900DC01F8
:101BD000CB019E838D830FC080E991E09C838B8332
:101BE0008B819C810197F1F79C838B838D819E81F2
:101BF00001979E838D838D819E81009769F714C024
:101C00006F81788589859A850E944900DC01CB0126
:101C10009E838D838D819E819A83898389819A8118
:101C20000197F1F79A8389838EE30E949F0C80E4E9
:101C30000E949F0C88EB0E949F0C80EC0E949F0CDE
:101C40008FE30E949F0C2E960FB6F894DEBF0FBE56
:101C5000CDBFCF91DF910895DF93CF93CDB7DEB79E
:101C600069970FB6F894DEBF0FBECDBF898F82E0B3
:101C700061E040E00E94970882E060E041E00E945D
:101C8000970881E0698D0E94440A82E062E041E0A9
:101C90000E94970880E090E0A0EAB0E48D8B9E8BD4
:101CA000AF8BB88F6D897E898F89988D2BEA3AEA40
:101CB0004AEA50E40E941F02DC01CB01898B9A8B17
:101CC000AB8BBC8B69897A898B899C8920E030E059
:101CD00040E85FE30E94550488231CF481E0888B70
:101CE00091C069897A898B899C8920E030E04FE72F
:101CF00053E40E94F50318160CF07BC06D897E89B1
:101D00008F89988D20E030E04AE754E40E9419035F
:101D1000DC01CB018C879D87AE87BF876C857D8575
:101D20008E859F8520E030E04AE755E40E941F023F
:101D3000DC01CB0188879987AA87BB87688579856D
:101D40008A859B8520E030E040E85FE30E945504EF
:101D500088232CF481E090E09F838E833FC06885C8
:101D600079858A859B8520E03FEF4FE757E40E9405
:101D7000F50318164CF56C857D858E859F8520E0D2
:101D800030E040E251E40E941F02DC01CB01BC01C3
:101D9000CD010E944900DC01CB019F838E830FC0DF
:101DA00080E991E09D838C838C819D810197F1F77F
:101DB0009D838C838E819F8101979F838E838E81EB
:101DC0009F81009769F724C0688579858A859B85FE
:101DD0000E944900DC01CB019F838E838E819F810D
:101DE0009B838A838A819B810197F1F79B838A83F6
:101DF0000FC069897A898B899C890E944900DC011E
:101E0000CB01888B8889898389818A95F1F78983B9
:101E100082E062E040E00E94970869960FB6F8946D
:101E2000DEBF0FBECDBFCF91DF910895DF93CF937B
:101E300000D0CDB7DEB782E063E041E00E949708B2
:101E400082E064E041E00E9497081A8212C08A8111
:101E500088540E949F0C198206C080E00E942C0EBC
:101E600089818F5F898389818034B8F38A818F5F0C
:101E70008A838A81883058F388EB0E949F0C80E423
:101E80000E949F0C0F900F90CF91DF910895DF93E8
:101E9000CF9300D0CDB7DEB789836A838A818093E0
:101EA00086038981809387038A81803498F482E055
:101EB00063E041E00E94970882E064E040E00E9415
:101EC0009708898188540E949F0C8A81805C0E94B7
:101ED0009F0C14C08A81803488F082E063E040E087
:101EE0000E94970882E064E041E00E94970889819F
:101EF00088540E949F0C8A810E949F0C0F900F9023
:101F0000CF91DF910895DF93CF9300D000D0CDB76C
:101F1000DEB79C838B831A8280918603803458F4C9
:101F200082E063E041E00E94970882E064E040E0E4
:101F30000E949708E7C080918603803408F4E2C0CD
:101F400082E063E040E00E94970882E064E041E0C4
:101F50000E949708D7C019825BC0809186038034A5
:101F600091F482E063E040E00E94970882E064E040
:101F700041E00E9497088091870388540E949F0C3B
:101F800080E40E949F0C809186038038C9F482E02F
:101F900063E041E00E94970882E064E040E00E9434
:101FA00097088091870387540E949F0C80E40E94C9
:101FB0009F0C809187038F5F809387031092860325
:101FC0008A81282F30E08B819C81FC01E20FF31F76
:101FD0008081882F90E09C01205230408981482FD9
:101FE00050E0C901880F991F880F991F820F931F16
:101FF000840F951FFC01EA55FE4F80810E942C0E34
:10200000809186038F5F8093860389818F5F8983A8
:102010008981853008F4A1CF80918603803491F4C2
:1020200082E063E040E00E94970882E064E041E0E3
:102030000E9497088091870388540E949F0C80E437
:102040000E949F0C809186038038C9F482E063E08F
:1020500041E00E94970882E064E040E00E94970817
:102060008091870387540E949F0C80E40E949F0CFC
:10207000809187038F5F80938703109286038A8104
:10208000882F90E09C012F5F3F4F8B819C81FC014A
:10209000E20FF31F8081803291F18A81282F30E096
:1020A0008B819C81FC01E20FF31F8081803239F12A
:1020B00080918603882319F18A81282F30E08B8153
:1020C0009C81FC01E20FF31F8081882F90E09C012E
:1020D00020523040C901880F991F880F991F820F25
:1020E000931FFC01E655FE4F8081882341F080E07C
:1020F0000E942C0E809186038F5F809386038A81D5
:102100008F5F8A838A81282F30E08B819C81FC013C
:10211000E20FF31F8081882309F01DCF0F900F90ED
:102120000F900F90CF91DF910895DF93CF9300D060
:10213000CDB7DEB78A83198233C08091860380349D
:1021400091F482E063E040E00E94970882E064E05E
:1021500041E00E9497088091870388540E949F0C59
:1021600080E40E949F0C8A81282F30E08981482FCB
:1021700050E0C901880F991F880F991F820F931F84
:10218000840F951FFC01EA55FE4F80810E942C0EA2
:10219000809186038F5F8093860389818F5F898317
:1021A0008981853050F20F900F90CF91DF91089583
:1021B0000F931F93DF93CF93CDB7DEB7A4970FB6DE
:1021C000F894DEBF0FBECDBF69A37AA38BA39CA3F7
:1021D0001E8A1D8A1C8A1B8A69A17AA18BA19CA1D7
:1021E0000E944900DC01CB018F87988BA98BBA8BA9
:1021F00069A17AA18BA19CA10E944900DC01CB01BD
:102200008B879C87AD87BE876F85788989899A89F6
:102210000E9437059B01AC0169A17AA18BA19CA109
:102220000E94C101DC01CB018F839887A987BA87FF
:1022300080E090E0A0E0B0E08B839C83AD83BE8320
:1022400015C08B859C85AD85BE852AE030E040E0D9
:1022500050E0BC01CD010E941E1BDA01C9018B8731
:102260009C87AD87BE878D898F5F8D8B8B859C8585
:10227000AD85BE850097A105B10519F78F859889B1
:10228000A989BA890097A105B10511F481E08D8B68
:102290006F81788589859A8520E030E040E050E0C4
:1022A0000E94C503882321F083E08C8B85E08B8B13
:1022B00080918603482F50E08D89282F30E08C894B
:1022C000882F90E0280F391FC901880F991F820FAE
:1022D000931F880F991F9C018B89882F90E0820F94
:1022E000931F840F951F81389105CCF082E063E045
:1022F00041E00E94970882E064E040E00E94970875
:102300008091870387540E949F0C80E40E949F0C59
:10231000809187038F5F809387031092860369A162
:102320007AA18BA19CA120E030E040E050E00E9427
:10233000C503882309F463C18F859889A989BA895F
:102340000097A105B10509F490C01D8A2DC08D89A3
:10235000082F10E08F859889A989BA892AE030E092
:1023600040E050E0BC01CD010E941E1BDC01CB010E
:10237000282FCE014796FC01E00FF11F20838F85A7
:102380009889A989BA892AE030E040E050E0BC0190
:10239000CD010E941E1BDA01C9018F87988BA98B82
:1023A000BA8B8D898F5F8D8B8F859889A989BA8922
:1023B0000097A105B10559F680918603803458F441
:1023C00082E063E041E00E94970882E064E040E040
:1023D0000E9497080EC080918603803450F082E0FE
:1023E00063E040E00E94970882E064E041E00E94E0
:1023F00097088D8981508A8334C08A81282F33279A
:1024000027FD3095CE014796FC01E20FF31F808136
:10241000805F0E949510809186038034B9F482E039
:1024200063E040E00E94970882E064E041E00E949F
:1024300097088091870388540E949F0C80E40E9433
:102440009F0C809186038F5F8093860380E00E94BB
:102450002C0E809186038F5F809386038A81815042
:102460008A838A8188234CF603C080E10E949510FC
:102470006F81788589859A8520E030E040E050E0E2
:102480000E94C503882309F4C5C08EE00E94951000
:102490001D8A5BC08D89082F10E06F817885898542
:1024A0009A8520E030E040E251E40E941F02DC0106
:1024B000CB01BC01CD010E944900DC01CB01282FDA
:1024C000CE014796FC01E00FF11F20836F817885D4
:1024D00089859A8520E030E040E251E40E941F02A5
:1024E000DC01CB018F839887A987BA878D89282F34
:1024F00030E0CE014796FC01E20FF31F8081882F68
:1025000090E0AA2797FDA095BA2FBC01CD010E94AB
:1025100085049B01AC016F81788589859A850E942D
:10252000C101DC01CB018B839C83AD83BE838B8196
:102530009C81AD81BE818F839887A987BA878D8959
:102540008F5F8D8B8E898F5F8E8B8E89833008F4A1
:10255000A1CF80918603803458F482E063E041E0AB
:102560000E94970882E064E040E00E9497080EC055
:1025700080918603803450F082E063E040E00E9466
:10258000970882E064E041E00E949708198232C017
:102590008981282F30E0CE014796FC01E20FF31F1E
:1025A0008081805F0E949510809186038034B9F409
:1025B00082E063E040E00E94970882E064E041E04E
:1025C0000E9497088091870388540E949F0C80E4A2
:1025D0000E949F0C809186038F5F8093860380E02A
:1025E0000E942C0E809186038F5F809386038981E1
:1025F0008F5F898399818D89981750F20BC080E194
:102600000E94951080E00E942C0E809186038F5FBF
:1026100080938603A4960FB6F894DEBF0FBECDBF9D
:10262000CF91DF911F910F9108950F931F93DF9327
:10263000CF93CDB7DEB760970FB6F894DEBF0FBE6D
:10264000CDBF888749875A876B877C870D871E8710
:102650002F87388B1092860369857A858B859C85B8
:1026600020E030E04AE754E40E941F02DC01CB0185
:10267000BC01CD0120E030E04EE353E40E94F201C2
:10268000DC01CB01BC01CD0120E030E04AE753E49E
:102690000E941903DC01CB01BC01CD010E948B1B00
:1026A000DC01CB01BC01CD010E944900DC01CB0162
:1026B0008F838F81282F30E080E890E0B9010E945D
:1026C0000B1BCB018E838E8182508D838D81882F51
:1026D00090E0AA2797FDA095BA2FBC01CD010E94DA
:1026E0008504DC01CB01BC01CD012D853E854F85E4
:1026F00058890E941F02DC01CB01BC01CD0120E002
:1027000030E048EC52E40E941903DC01CB01BC012B
:10271000CD010E948B1BDC01CB01BC01CD010E94CD
:102720004900DC01CB018C839D818C81292F281BE2
:10273000822F8B8382E063E041E00E94970882E071
:1027400064E040E00E949708888588540E949F0CAE
:1027500080E40E949F0C1A8225C0809186038034F9
:1027600089F482E063E040E00E94970882E064E040
:1027700041E00E949708888588540E949F0C80E45D
:102780000E949F0C80918603803809F48BC081E001
:102790000E942C0E809186038F5F809386038A812E
:1027A0008F5F8A839A818C819817B8F28B818823F6
:1027B00029F18C81882311F180918603803489F47A
:1027C00082E063E040E00E94970882E064E041E03C
:1027D0000E949708888588540E949F0C80E40E947C
:1027E0009F0C80918603803809F45CC08FEF0E94B3
:1027F0002C0E809186038F5F80938603198224C0FC
:1028000080918603803489F482E063E040E00E9496
:10281000970882E064E041E00E9497088885885428
:102820000E949F0C80E40E949F0C80918603803858
:10283000C9F180E80E942C0E809186038F5F8093FF
:10284000860389818F5F898399818B819817C0F274
:102850008B81882309F47FCF8C81882309F47BCF77
:1028600080918603803489F482E063E040E00E9436
:10287000970882E064E041E00E94970888858854C8
:102880000E949F0C80E40E949F0C809186038038F8
:1028900049F08FEF0E942C0E809186038F5F80930A
:1028A000860359CF60960FB6F894DEBF0FBECDBF3A
:1028B000CF91DF911F910F910895DF93CF93CDB703
:1028C000DEB7A3E5B0E0E3E5F0E08081887F8C939C
:1028D000A3E5B0E0E3E5F0E0808182608C93A3E5BE
:1028E000B0E0E3E5F0E080818F7B8C93A3E5B0E07E
:1028F000E3E5F0E08081877F8C93A9E5B0E0E9E52E
:10290000F0E0808181608C93CF91DF910895DF9317
:10291000CF930F92CDB7DEB78983E2E5F0E08981EE
:1029200080830F90CF91DF910895DF93CF930F9223
:10293000CDB7DEB78983ECE5F0E0898181508083F3
:102940000F90CF91DF910895DF93CF9300D0CDB753
:10295000DEB79A83898389819A81909399038093C2
:1029600098030F900F90CF91DF9108951F920F92CF
:102970000FB60F9211242F933F934F935F936F9352
:102980007F938F939F93AF93BF93EF93FF93DF93C7
:10299000CF93CDB7DEB7E0919803F09199030995F5
:1029A000CF91DF91FF91EF91BF91AF919F918F9167
:1029B0007F916F915F914F913F912F910F900FBE3B
:1029C0000F901F901895DF93CF9300D0CDB7DEB74F
:1029D0009A83898389819A8190938F0380938E0350
:1029E0000F900F90CF91DF9108951F920F920FB625
:1029F0000F9211242F933F934F935F936F937F9385
:102A00008F939F93AF93BF93EF93FF93DF93CF93F6
:102A1000CDB7DEB7E0918E03F0918F030995CF918A
:102A2000DF91FF91EF91BF91AF919F918F917F9136
:102A30006F915F914F913F912F910F900FBE0F902B
:102A40001F901895DF93CF93CDB7DEB7AEE4B0E01B
:102A5000EEE4F0E08081887F8C93AEE4B0E0EEE4B9
:102A6000F0E0808181608C93AFE4B0E0EFE4F0E0CF
:102A700080818E7F8C93AFE4B0E0EFE4F0E0808162
:102A80008D7F8C93AEE4B0E0EEE4F0E08081877F50
:102A90008C93AEE4B0E0EEE4F0E080818F7E8C9326
:102AA000A9E5B0E0E9E5F0E0808184608C93CF9106
:102AB000DF910895DF93CF9300D0CDB7DEB79A832F
:102AC0008983ECE4F0E089819A81918380830F907F
:102AD0000F90CF91DF910895DF93CF9300D0CDB7C2
:102AE000DEB79A838983EAE4F0E089819A810197CD
:102AF000918380830F900F90CF91DF910895DF93A2
:102B0000CF9300D0CDB7DEB79A8389830F900F9013
:102B1000CF91DF910895DF93CF930F92CDB7DEB7BA
:102B200089838981882341F4AEE4B0E0EEE4F0E0EB
:102B3000808180648C930AC08981813039F4AEE44D
:102B4000B0E0EEE4F0E080818F7B8C93A9E5B0E00B
:102B5000E9E5F0E0808180628C930F90CF91DF9166
:102B60000895DF93CF93CDB7DEB7E6E4F0E0808140
:102B70009181CF91DF910895DF93CF9300D0CDB7AE
:102B8000DEB79A83898389819A8190939303809396
:102B900092030F900F90CF91DF9108951F920F92A3
:102BA0000FB60F9211242F933F934F935F936F9320
:102BB0007F938F939F93AF93BF93EF93FF93DF9395
:102BC000CF93CDB7DEB7E0919203F09193030995CF
:102BD000CF91DF91FF91EF91BF91AF919F918F9135
:102BE0007F916F915F914F913F912F910F900FBE09
:102BF0000F901F901895DF93CF9300D0CDB7DEB71D
:102C00009A83898389819A8190938D0380938C0321
:102C10000F900F90CF91DF9108951F920F920FB6F2
:102C20000F9211242F933F934F935F936F937F9352
:102C30008F939F93AF93BF93EF93FF93DF93CF93C4
:102C4000CDB7DEB7E0918C03F0918D030995CF915C
:102C5000DF91FF91EF91BF91AF919F918F917F9104
:102C60006F915F914F913F912F910F900FBE0F90F9
:102C70001F901895DF93CF9300D0CDB7DEB79A831E
:102C8000898389819A8190939503809394030F900F
:102C90000F90CF91DF9108951F920F920FB60F9270
:102CA00011242F933F934F935F936F937F938F9351
:102CB0009F93AF93BF93EF93FF93DF93CF93CDB7E2
:102CC000DEB7E0919403F09195030995CF91DF91E0
:102CD000FF91EF91BF91AF919F918F917F916F91F4
:102CE0005F914F913F912F910F900FBE0F901F90CA
:102CF0001895DF93CF9300D0CDB7DEB79A83898341
:102D000089819A8190939703809396030F900F90F7
:102D1000CF91DF9108951F920F920FB60F92112459
:102D20002F933F934F935F936F937F938F939F93D3
:102D3000AF93BF93EF93FF93DF93CF93CDB7DEB7FE
:102D4000E0919603F09197030995CF91DF91FF9160
:102D5000EF91BF91AF919F918F917F916F915F9113
:102D60004F913F912F910F900FBE0F901F9018958C
:102D7000DF93CF93CDB7DEB7A5E4B0E0E5E4F0E0B4
:102D80008081887F8C93A5E4B0E0E5E4F0E0808169
:102D900086608C93A5E4B0E0E5E4F0E08081806497
:102DA0008C93A5E4B0E0E5E4F0E0808188608C934A
:102DB000A5E4B0E0E5E4F0E080818F7E8C93A5E4AB
:102DC000B0E0E5E4F0E0808180628C93CF91DF9108
:102DD0000895DF93CF930F92CDB7DEB78983E4E4F4
:102DE000F0E0898180830F90CF91DF910895DF9388
:102DF000CF930F92CDB7DEB78983E3E4F0E089810A
:102E0000815080830F90CF91DF910895DF93CF930E
:102E100000D0CDB7DEB79A83898389819A81909358
:102E20008B0380938A030F900F90CF91DF910895C9
:102E30001F920F920FB60F9211242F933F934F932F
:102E40005F936F937F938F939F93AF93BF93EF9312
:102E5000FF93DF93CF93CDB7DEB7E0918A03F09174
:102E60008B030995CF91DF91FF91EF91BF91AF91C6
:102E70009F918F917F916F915F914F913F912F9192
:102E80000F900FBE0F901F901895DF93CF9300D037
:102E9000CDB7DEB79A83898389819A819093910314
:102EA000809390030F900F90CF91DF9108951F9220
:102EB0000F920FB60F9211242F933F934F935F936E
:102EC0006F937F938F939F93AF93BF93EF93FF93F2
:102ED000DF93CF93CDB7DEB7E0919003F0919103EC
:102EE0000995CF91DF91FF91EF91BF91AF919F91A4
:102EF0008F917F916F915F914F913F912F910F90A3
:102F00000FBE0F901F901895AF92BF92CF92DF9295
:102F1000EF92FF920F931F93DF93CF93CDB7DEB75E
:102F2000C157D0400FB6F894DEBF0FBECDBF8E01A3
:102F3000055E1F4F6B961FAF0EAF6B9780E690E05C
:102F40006D969FAF8EAF6D979DE06E969FAF6E971B
:102F50006D96EEADFFAD6D9700806D960EAD1FAD19
:102F60006D970F5F1F4F6D961FAF0EAF6D976B96EE
:102F7000EEADFFAD6B9700826B960EAD1FAD6B97FC
:102F80000F5F1F4F6B961FAF0EAF6B976E961FAD07
:102F90006E9711506E961FAF6E976E968FAD6E97AF
:102FA0008823B1F680916D0090916E00A0916F0022
:102FB000B091700088A799A7AAA7BBA7FE01BC96ED
:102FC000A096FFAFEEAFA09701E710E0A2961FAF6B
:102FD0000EAFA2971EE0A3961FAFA397A296EEADE9
:102FE000FFADA2970080A2960EAD1FADA2970F5F16
:102FF0001F4FA2961FAF0EAFA297A096EEADFFADEA
:10300000A0970082A0960EAD1FADA0970F5F1F4F37
:10301000A0961FAF0EAFA097A3961FADA397115018
:10302000A3961FAFA397A3968FADA3978823B1F65E
:1030300080917F00909180009BAF8AAFFE01FC964B
:10304000A596FFAFEEAFA59701E810E0A7961FAFDA
:103050000EAFA7971FE0A8961FAFA897A796EEAD53
:10306000FFADA7970080A7960EAD1FADA7970F5F86
:103070001F4FA7961FAF0EAFA797A596EEADFFAD5A
:10308000A5970082A5960EAD1FADA5970F5F1F4FA8
:10309000A5961FAF0EAFA597A8961FADA897115084
:1030A000A8961FAFA897A8968FADA8978823B1F6CA
:1030B000CE01855B9F4FAA969FAF8EAFAA97E0E99E
:1030C000F0E0AC96FFAFEEAFAC97F3E0AD96FFAF9C
:1030D000AD97AC96EEADFFADAC970080AC960EAD63
:1030E0001FADAC970F5F1F4FAC961FAF0EAFAC97E5
:1030F000AA96EEADFFADAA970082AA960EAD1FADBF
:10310000AA970F5F1F4FAA961FAF0EAFAA97AD9653
:103110001FADAD971150AD961FAFAD97AD968FAD6A
:10312000AD978823B1F6CE01825B9F4FAF969FAFDC
:103130008EAFAF97E3E9F0E0E196FFAFEEAFE19736
:10314000FBE0E296FFAFE297E196EEADFFADE197CF
:103150000080E1960EAD1FADE1970F5F1F4FE19626
:103160001FAF0EAFE197AF96EEADFFADAF97008208
:10317000AF960EAD1FADAF970F5F1F4FAF961FAF4E
:103180000EAFAF97E2961FADE2971150E2961FAFD8
:10319000E297E2968FADE2978823B1F683E067E08D
:1031A00041E00E94A50783E066E040E00E94A50799
:1031B00081E06FEF0E94030A82E060E041E00E943C
:1031C000A50782E061E041E00E94A50782E062E09D
:1031D00041E00E94A50782E063E041E00E94A5076C
:1031E00082E064E041E00E94A50782E065E041E002
:1031F0000E94A5070E94890D0E94160F80E00E9480
:103200008B150E9422158DE89AE10E94BC158FEF64
:103210009AE10E94791686E90E94F7160E94B81674
:103220000E94830C80E060E00E94470FCE01825B29
:103230009F4F0E94830F80E090E0AAE7B4E48B8761
:103240009C87AD87BE876B857C858D859E8520E0BC
:1032500030E04AE755E40E941F02DC01CB018F8376
:103260009887A987BA876F81788589859A8520E0B4
:1032700030E040E85FE30E94550488232CF481E0AD
:1032800090E09E838D833FC06F81788589859A8584
:1032900020E03FEF4FE757E40E94F50318164CF586
:1032A0006B857C858D859E8520E030E040E251E491
:1032B0000E941F02DC01CB01BC01CD010E9449002C
:1032C000DC01CB019E838D830FC080E991E09C835C
:1032D0008B838B819C810197F1F79C838B838D81FC
:1032E0009E8101979E838D838D819E81009769F7D2
:1032F00014C06F81788589859A850E944900DC0118
:10330000CB019E838D838D819E819A838983898160
:103310009A810197F1F79A8389830E94160F809111
:1033200089038330E1F780919E0390919F03A091E0
:10333000A003B091A103BC01CD010E943705DC01BF
:10334000CB01BC01CD0120E030E040E851E40E9417
:103350001903DC01CB017C018D018091A2039091C6
:10336000A303A091A403B091A503BC01CD010E94C9
:103370003705DC01CB01BC01CD0120E030E040E8A5
:1033800051EC0E941903DC01CB019C01AD01C80185
:10339000B7010E94F201DC01CB019C01AD0160E0AC
:1033A00070E08AE794E40E941903DC01CB018F8B63
:1033B000988FA98FBA8F20919A0330919B034091E7
:1033C0009C0350919D038091A2039091A303A0912F
:1033D000A403B091A50359016A01A81AB90ACA0A3F
:1033E000DB0AD601C501BC01CD010E943705DC0115
:1033F000CB01BC01CD0120E030E048EC52E40E945A
:103400001F02DC01CB017C018D0120919E033091D4
:103410009F034091A0035091A1038091A20390913A
:10342000A303A091A403B091A50359016A01A81AAE
:10343000B90ACA0ADB0AD601C501BC01CD010E9446
:1034400037059B01AC01C801B7010E941903DC01DB
:10345000CB018B8B9C8BAD8BBE8B60E070E080E8EA
:103460009FE32F89388D498D5A8D0E941903DC0105
:10347000CB018F87988BA98BBA8B80E060E00E948C
:10348000470FCE014B960E94830F8F89988DA98D8F
:10349000BA8DBC01CD010E94D810CE0188960E9441
:1034A000830F82E060E00E94470FCE018C960E945D
:1034B000830F8B899C89AD89BE89BC01CD010E9497
:1034C000D810CE01CA960E94830F84E060E00E946B
:1034D000470FCE01CC960E94830F8F859889A989CA
:1034E000BA89BC01CD010E94D810CE01855B9F4FE7
:1034F0000E94830F2F89388D498D5A8DEB88FC8867
:103500000D891E8986E0BA01A901980187010E94F0
:10351000151384E08093890302CFDF93CF93CDB757
:10352000DEB780918903882309F50E94B1159C01BB
:1035300040E050E080918803882F90E0A0E0B0E068
:10354000DC0199278827820F931FA41FB51F809342
:10355000A2039093A303A093A403B093A50381E0D7
:103560000E948B1581E08093890346C08091890376
:10357000813009F50E94B1159C0140E050E0809136
:103580008803882F90E0A0E0B0E0DC01992788272D
:10359000820F931FA41FB51F80939A0390939B03E0
:1035A000A0939C03B0939D0380E00E948B1582E062
:1035B0008093890321C0809189038230E9F40E94BD
:1035C000B1159C0140E050E080918803882F90E085
:1035D000A0E0B0E0DC0199278827820F931FA41F89
:1035E000B51F80939E0390939F03A093A003B09375
:1035F000A10383E080938903CF91DF910895DF9346
:10360000CF93CDB7DEB7809188038F5F8093880317
:10361000CF91DF91089597FB092E07260AD077FDF9
:1036200004D02ED006D000201AF4709561957F4FFB
:103630000895F6F7909581959F4F0895A1E21A2E6F
:10364000AA1BBB1BFD010DC0AA1FBB1FEE1FFF1F46
:10365000A217B307E407F50720F0A21BB30BE40B96
:10366000F50B661F771F881F991F1A9469F76095DD
:103670007095809590959B01AC01BD01CF01089597
:10368000AA1BBB1B51E107C0AA1FBB1FA617B70788
:1036900010F0A61BB70B881F991F5A95A9F78095A4
:1036A0009095BC01CD0108952F923F924F925F9269
:1036B0006F927F928F929F92AF92BF92CF92DF9242
:1036C000EF92FF920F931F93CF93DF93CDB7DEB7A7
:1036D000CA1BDB0B0FB6F894DEBF0FBECDBF09943B
:1036E0002A88398848885F846E847D848C849B8492
:1036F000AA84B984C884DF80EE80FD800C811B81A0
:10370000AA81B981CE0FD11D0FB6F894DEBF0FBECE
:10371000CDBFED01089550D0E0F09E37D8F0963936
:10372000B8F49E3848F4672F782F8827985FF9CF30
:1037300086957795679593959539D0F3B62FB170A7
:103740006B0F711D811D20F4879577956795939573
:1037500002C01CC04CC0882371F4772321F098501C
:10376000872B762F07C0662311F499270DC090513F
:10377000862B70E060E02AF09A95660F771F881F0D
:10378000DAF7880F9695879597F908959F3F31F05E
:10379000915020F4879577956795B795880F911D7F
:1037A0009695879597F9089557FD9058440F551FA2
:1037B00059F05F3F71F04795880F97FB991F61F0B3
:1037C0009F3F79F087950895121613061406551F2A
:1037D000F2CF4695F1DF08C0161617061806991F96
:1037E000F1CF86957105610508940895E894BB278B
:0E37F00066277727CB0197F90895F894FFCF4D
:1037FE004672657175656E6379203D20004B485A9F
:10380E000044757479204379636C65203D20002552
:10381E000054696D6520506572696F64203D20000B
:10382E006D730057656C636F6D652E2E2E00000054
:10383E000000000000000001020203030303040461
:10384E000404040404040505050505050505050520
:10385E000505050505050606060606060606060600
:10386E0006060606060606060606060606060606EA
:10387E0006060606060607070707070707070707D0
:10388E0007070707070707070707070707070707BA
:10389E0007070707070707070707070707070707AA
:1038AE00070707070707070707070707070707079A
:1038BE000707070707070808080808080808080880
:1038CE00080808080808080808080808080808086A
:1038DE00080808080808080808080808080808085A
:1038EE00080808080808080808080808080808084A
:1038FE00080808080808080808080808080808083A
:10390E000808080808080808080808080808080829
:10391E000808080808080808080808080808080819
:10392E000808080808080808080808080808080809
:10393E00080808080808000000000000005F0000EA
:10394E000007000700147F147F14242A7F2A1223F5
:10395E001308646236495522500005030000001C0E
:10396E002241000041221C0014083E081408083EA3
:10397E0008080050300000080808080800606000C1
:10398E000020100804023E5149453E00427F40008F
:10399E0042615149462141454B311814127F10277F
:1039AE00454545393C4A49493001710905033649B7
:1039BE00494936064949291E00363600000056365A
:1039CE00000008142241001414141414004122148F
:1039DE00080201510906324979413E7E1111117ECC
:1039EE007F494949363E414141227F4141221C7F58
:1039FE00494949417F090909013E4149497A7F08F0
:103A0E0008087F00417F41002040413F017F08149C
:103A1E0022417F404040407F020C027F7F0408100D
:103A2E007F3E4141413E7F090909063E4151215EDB
:103A3E007F09192946464949493101017F01013F54
:103A4E004040403F1F2040201F3F4038403F6314FE
:103A5E0008146307087008076151494543007F4108
:103A6E00410002040810200041417F0004020102BF
:103A7E000440404040400001020400205454547859
:103A8E007F484444383844444420384444487F38BE
:103A9E0054545418087E0901020C5252523E7F08AB
:103AAE0004047800447D40002040443D007F1028EF
:103ABE00440000417F40007C041804787C08040414
:103ACE007838444444387C14141408081414187CB0
:103ADE007C080404084854545420043F4440203CBD
:103AEE004040207C1C2040201C3C4030403C442860
:103AFE001028440C5050503C4464544C440008363A
:103B0E00410000007F000000413608001008081038
:063B1E00087846414678DC
:00000001FF
